{
  "_format": "hh-sol-artifact-1",
  "contractName": "WavePortal",
  "sourceName": "contracts/WavePortal.sol",
  "abi": [
    {
      "inputs": [],
      "stateMutability": "payable",
      "type": "constructor"
    },
    {
      "anonymous": false,
      "inputs": [
        {
          "indexed": true,
          "internalType": "address",
          "name": "from",
          "type": "address"
        },
        {
          "indexed": false,
          "internalType": "uint256",
          "name": "timestamp",
          "type": "uint256"
        },
        {
          "indexed": false,
          "internalType": "string",
          "name": "message",
          "type": "string"
        }
      ],
      "name": "NewWave",
      "type": "event"
    },
    {
      "inputs": [],
      "name": "getAllWaves",
      "outputs": [
        {
          "components": [
            {
              "internalType": "string",
              "name": "message",
              "type": "string"
            },
            {
              "internalType": "address",
              "name": "waver",
              "type": "address"
            },
            {
              "internalType": "uint256",
              "name": "timestamp",
              "type": "uint256"
            }
          ],
          "internalType": "struct WavePortal.Wave[]",
          "name": "",
          "type": "tuple[]"
        }
      ],
      "stateMutability": "view",
      "type": "function"
    },
    {
      "inputs": [
        {
          "internalType": "address",
          "name": "",
          "type": "address"
        }
      ],
      "name": "lastWavedAt",
      "outputs": [
        {
          "internalType": "uint256",
          "name": "",
          "type": "uint256"
        }
      ],
      "stateMutability": "view",
      "type": "function"
    },
    {
      "inputs": [
        {
          "internalType": "string",
          "name": "_message",
          "type": "string"
        }
      ],
      "name": "wave",
      "outputs": [],
      "stateMutability": "nonpayable",
      "type": "function"
    }
  ],
  "bytecode": "0x6080604052620000336040518060600160405280602a8152602001620013fb602a91396200003960201b6200063d1760201c565b620001cd565b620000d98160405160240162000050919062000146565b6040516020818303038152906040527f41304fac000000000000000000000000000000000000000000000000000000007bffffffffffffffffffffffffffffffffffffffffffffffffffffffff19166020820180517bffffffffffffffffffffffffffffffffffffffffffffffffffffffff8381831617835250505050620000dc60201b60201c565b50565b60008151905060006a636f6e736f6c652e6c6f679050602083016000808483855afa5050505050565b600062000112826200016a565b6200011e818562000175565b93506200013081856020860162000186565b6200013b81620001bc565b840191505092915050565b6000602082019050818103600083015262000162818462000105565b905092915050565b600081519050919050565b600082825260208201905092915050565b60005b83811015620001a657808201518184015260208101905062000189565b83811115620001b6576000848401525b50505050565b6000601f19601f8301169050919050565b61121e80620001dd6000396000f3fe608060405234801561001057600080fd5b50600436106100415760003560e01c8063449d46c014610046578063a42a466314610062578063bd43a90814610092575b600080fd5b610060600480360381019061005b9190610a1c565b6100b0565b005b61007c600480360381019061007791906109f3565b6104d4565b6040516100899190610dc0565b60405180910390f35b61009a6104ec565b6040516100a79190610c85565b60405180910390f35b42601e600260003373ffffffffffffffffffffffffffffffffffffffff1673ffffffffffffffffffffffffffffffffffffffff168152602001908152602001600020546100fd9190610ed2565b1061013d576040517f08c379a000000000000000000000000000000000000000000000000000000000815260040161013490610d60565b60405180910390fd5b42600260003373ffffffffffffffffffffffffffffffffffffffff1673ffffffffffffffffffffffffffffffffffffffff168152602001908152602001600020819055506101c06040518060400160405280600c81526020017f2573206973207761766564210000000000000000000000000000000000000000815250336106d6565b6101ff6040518060400160405280600f81526020017f476f74206d6573736167653a202573000000000000000000000000000000000081525082610772565b600160405180606001604052808381526020013373ffffffffffffffffffffffffffffffffffffffff16815260200142815250908060018154018082558091505060019003906000526020600020906003020160009091909190915060008201518160000190805190602001906102779291906108d3565b5060208201518160010160006101000a81548173ffffffffffffffffffffffffffffffffffffffff021916908373ffffffffffffffffffffffffffffffffffffffff1602179055506040820151816002015550503373ffffffffffffffffffffffffffffffffffffffff167f5f7e16dc676677766a70e9c5628aa6c54ddb8b6e5188e2ae1e1f17f1ffbea7164283604051610313929190610ddb565b60405180910390a260006064600054424461032e9190610ed2565b6103389190610ed2565b6103429190611009565b90506103836040518060400160405280601981526020017f52616e646f6d20232067656e65726174656420697320257320000000000000008152508261080e565b8060008190555060328110156104d0576103d26040518060400160405280600781526020017f257320776f6e2100000000000000000000000000000000000000000000000000815250336106d6565b600066038d7ea4c68000905047811115610421576040517f08c379a000000000000000000000000000000000000000000000000000000000815260040161041890610d80565b60405180910390fd5b60003373ffffffffffffffffffffffffffffffffffffffff168260405161044790610c70565b60006040518083038185875af1925050503d8060008114610484576040519150601f19603f3d011682016040523d82523d6000602084013e610489565b606091505b50509050806104cd576040517f08c379a00000000000000000000000000000000000000000000000000000000081526004016104c490610da0565b60405180910390fd5b50505b5050565b60026020528060005260406000206000915090505481565b60606001805480602002602001604051908101604052809291908181526020016000905b82821015610634578382906000526020600020906003020160405180606001604052908160008201805461054390610fa6565b80601f016020809104026020016040519081016040528092919081815260200182805461056f90610fa6565b80156105bc5780601f10610591576101008083540402835291602001916105bc565b820191906000526020600020905b81548152906001019060200180831161059f57829003601f168201915b505050505081526020016001820160009054906101000a900473ffffffffffffffffffffffffffffffffffffffff1673ffffffffffffffffffffffffffffffffffffffff1673ffffffffffffffffffffffffffffffffffffffff16815260200160028201548152505081526020019060010190610510565b50505050905090565b6106d3816040516024016106519190610ca7565b6040516020818303038152906040527f41304fac000000000000000000000000000000000000000000000000000000007bffffffffffffffffffffffffffffffffffffffffffffffffffffffff19166020820180517bffffffffffffffffffffffffffffffffffffffffffffffffffffffff83818316178352505050506108aa565b50565b61076e82826040516024016106ec929190610cc9565b6040516020818303038152906040527f319af333000000000000000000000000000000000000000000000000000000007bffffffffffffffffffffffffffffffffffffffffffffffffffffffff19166020820180517bffffffffffffffffffffffffffffffffffffffffffffffffffffffff83818316178352505050506108aa565b5050565b61080a8282604051602401610788929190610cf9565b6040516020818303038152906040527f4b5c4277000000000000000000000000000000000000000000000000000000007bffffffffffffffffffffffffffffffffffffffffffffffffffffffff19166020820180517bffffffffffffffffffffffffffffffffffffffffffffffffffffffff83818316178352505050506108aa565b5050565b6108a68282604051602401610824929190610d30565b6040516020818303038152906040527f9710a9d0000000000000000000000000000000000000000000000000000000007bffffffffffffffffffffffffffffffffffffffffffffffffffffffff19166020820180517bffffffffffffffffffffffffffffffffffffffffffffffffffffffff83818316178352505050506108aa565b5050565b60008151905060006a636f6e736f6c652e6c6f679050602083016000808483855afa5050505050565b8280546108df90610fa6565b90600052602060002090601f0160209004810192826109015760008555610948565b82601f1061091a57805160ff1916838001178555610948565b82800160010185558215610948579182015b8281111561094757825182559160200191906001019061092c565b5b5090506109559190610959565b5090565b5b8082111561097257600081600090555060010161095a565b5090565b600061098961098484610e30565b610e0b565b9050828152602081018484840111156109a157600080fd5b6109ac848285610f64565b509392505050565b6000813590506109c3816111d1565b92915050565b600082601f8301126109da57600080fd5b81356109ea848260208601610976565b91505092915050565b600060208284031215610a0557600080fd5b6000610a13848285016109b4565b91505092915050565b600060208284031215610a2e57600080fd5b600082013567ffffffffffffffff811115610a4857600080fd5b610a54848285016109c9565b91505092915050565b6000610a698383610c02565b905092915050565b610a7a81610f28565b82525050565b610a8981610f28565b82525050565b6000610a9a82610e71565b610aa48185610e94565b935083602082028501610ab685610e61565b8060005b85811015610af25784840389528151610ad38582610a5d565b9450610ade83610e87565b925060208a01995050600181019050610aba565b50829750879550505050505092915050565b6000610b0f82610e7c565b610b198185610eb0565b9350610b29818560208601610f73565b610b32816110f6565b840191505092915050565b6000610b4882610e7c565b610b528185610ec1565b9350610b62818560208601610f73565b610b6b816110f6565b840191505092915050565b6000610b83600f83610ec1565b9150610b8e82611107565b602082019050919050565b6000610ba6602f83610ec1565b9150610bb182611130565b604082019050919050565b6000610bc9600083610ea5565b9150610bd48261117f565b600082019050919050565b6000610bec602683610ec1565b9150610bf782611182565b604082019050919050565b60006060830160008301518482036000860152610c1f8282610b04565b9150506020830151610c346020860182610a71565b506040830151610c476040860182610c52565b508091505092915050565b610c5b81610f5a565b82525050565b610c6a81610f5a565b82525050565b6000610c7b82610bbc565b9150819050919050565b60006020820190508181036000830152610c9f8184610a8f565b905092915050565b60006020820190508181036000830152610cc18184610b3d565b905092915050565b60006040820190508181036000830152610ce38185610b3d565b9050610cf26020830184610a80565b9392505050565b60006040820190508181036000830152610d138185610b3d565b90508181036020830152610d278184610b3d565b90509392505050565b60006040820190508181036000830152610d4a8185610b3d565b9050610d596020830184610c61565b9392505050565b60006020820190508181036000830152610d7981610b76565b9050919050565b60006020820190508181036000830152610d9981610b99565b9050919050565b60006020820190508181036000830152610db981610bdf565b9050919050565b6000602082019050610dd56000830184610c61565b92915050565b6000604082019050610df06000830185610c61565b8181036020830152610e028184610b3d565b90509392505050565b6000610e15610e26565b9050610e218282610fd8565b919050565b6000604051905090565b600067ffffffffffffffff821115610e4b57610e4a6110c7565b5b610e54826110f6565b9050602081019050919050565b6000819050602082019050919050565b600081519050919050565b600081519050919050565b6000602082019050919050565b600082825260208201905092915050565b600081905092915050565b600082825260208201905092915050565b600082825260208201905092915050565b6000610edd82610f5a565b9150610ee883610f5a565b9250827fffffffffffffffffffffffffffffffffffffffffffffffffffffffffffffffff03821115610f1d57610f1c61103a565b5b828201905092915050565b6000610f3382610f3a565b9050919050565b600073ffffffffffffffffffffffffffffffffffffffff82169050919050565b6000819050919050565b82818337600083830152505050565b60005b83811015610f91578082015181840152602081019050610f76565b83811115610fa0576000848401525b50505050565b60006002820490506001821680610fbe57607f821691505b60208210811415610fd257610fd1611098565b5b50919050565b610fe1826110f6565b810181811067ffffffffffffffff8211171561100057610fff6110c7565b5b80604052505050565b600061101482610f5a565b915061101f83610f5a565b92508261102f5761102e611069565b5b828206905092915050565b7f4e487b7100000000000000000000000000000000000000000000000000000000600052601160045260246000fd5b7f4e487b7100000000000000000000000000000000000000000000000000000000600052601260045260246000fd5b7f4e487b7100000000000000000000000000000000000000000000000000000000600052602260045260246000fd5b7f4e487b7100000000000000000000000000000000000000000000000000000000600052604160045260246000fd5b6000601f19601f8301169050919050565b7f57616974203330207365636f6e64730000000000000000000000000000000000600082015250565b7f747279696e6720746f207769746864726177206d6f7265206d6f6e657920746860008201527f616e20636f6e7472616374206861730000000000000000000000000000000000602082015250565b50565b7f6661696c656420746f207769746864726177206d6f6e65792066726f6d20636f60008201527f6e74726163740000000000000000000000000000000000000000000000000000602082015250565b6111da81610f28565b81146111e557600080fd5b5056fea2646970667358221220bcade992ce464479f44bbebab4e15f7569006251a761e6880582f5f1dbce87da64736f6c63430008040033596f2c204920616d206120667269636b696e20636f6e747261637420616e64204920697a20736d6f7274",
  "linkReferences": {},
  "deployedLinkReferences": {}
}